{
  "_format": "hh-sol-artifact-1",
  "contractName": "PaymentContract",
  "sourceName": "contracts/PaymentContract.sol",
  "abi": [
    {
      "anonymous": false,
      "inputs": [
        {
          "indexed": true,
          "internalType": "address",
          "name": "sender",
          "type": "address"
        },
        {
          "indexed": true,
          "internalType": "address",
          "name": "admin",
          "type": "address"
        },
        {
          "indexed": false,
          "internalType": "uint256",
          "name": "amount",
          "type": "uint256"
        }
      ],
      "name": "PaymentSent",
      "type": "event"
    },
    {
      "inputs": [
        {
          "internalType": "uint256",
          "name": "_amount",
          "type": "uint256"
        },
        {
          "internalType": "address",
          "name": "_admin",
          "type": "address"
        }
      ],
      "name": "sendPayment",
      "outputs": [],
      "stateMutability": "payable",
      "type": "function"
    },
    {
      "stateMutability": "payable",
      "type": "receive"
    }
  ],
  "bytecode": "0x6080604052348015600f57600080fd5b506102ec8061001f6000396000f3fe6080604052600436106100225760003560e01c8063c58a6ce81461007957600080fd5b366100745760405162461bcd60e51b815260206004820152601f60248201527f44697265637420455448206465706f73697473206e6f7420616c6c6f7765640060448201526064015b60405180910390fd5b600080fd5b61008c61008736600461027a565b61008e565b005b600082116100de5760405162461bcd60e51b815260206004820181905260248201527f416d6f756e74206d7573742062652067726561746572207468616e207a65726f604482015260640161006b565b81341461013c5760405162461bcd60e51b815260206004820152602660248201527f53656e742076616c7565206d757374206d617463682073706563696669656420604482015265185b5bdd5b9d60d21b606482015260840161006b565b6001600160a01b0381166101925760405162461bcd60e51b815260206004820152601c60248201527f41646d696e20616464726573732063616e6e6f74206265207a65726f00000000604482015260640161006b565b6000816001600160a01b03168360405160006040518083038185875af1925050503d80600081146101df576040519150601f19603f3d011682016040523d82523d6000602084013e6101e4565b606091505b50509050806102355760405162461bcd60e51b815260206004820152601760248201527f5061796d656e74207472616e73666572206661696c6564000000000000000000604482015260640161006b565b6040518381526001600160a01b0383169033907fd52bd61f7c422d441e024604f4517878fd3305d6acf0fe37baef23ed21af6bc99060200160405180910390a3505050565b6000806040838503121561028d57600080fd5b8235915060208301356001600160a01b03811681146102ab57600080fd5b80915050925092905056fea2646970667358221220ee5527681d1a1688593210b8458adce4957ee99efd8dc525684d601078dc304e64736f6c634300081c0033",
  "linkReferences": {},
  "deployedLinkReferences": {}
}