{
  "_format": "hh-sol-artifact-1",
  "contractName": "StorageContract",
  "sourceName": "contracts/StorageContract.sol",
  "abi": [
    {
      "anonymous": false,
      "inputs": [
        {
          "indexed": true,
          "internalType": "address",
          "name": "user",
          "type": "address"
        },
        {
          "indexed": false,
          "internalType": "string",
          "name": "data",
          "type": "string"
        }
      ],
      "name": "DataRetrieved",
      "type": "event"
    },
    {
      "anonymous": false,
      "inputs": [
        {
          "indexed": true,
          "internalType": "address",
          "name": "user",
          "type": "address"
        },
        {
          "indexed": false,
          "internalType": "string",
          "name": "data",
          "type": "string"
        }
      ],
      "name": "DataSaved",
      "type": "event"
    },
    {
      "anonymous": false,
      "inputs": [
        {
          "indexed": true,
          "internalType": "address",
          "name": "user",
          "type": "address"
        },
        {
          "indexed": false,
          "internalType": "string",
          "name": "newData",
          "type": "string"
        }
      ],
      "name": "DataUpdated",
      "type": "event"
    },
    {
      "inputs": [],
      "name": "getData",
      "outputs": [
        {
          "internalType": "string",
          "name": "",
          "type": "string"
        }
      ],
      "stateMutability": "view",
      "type": "function"
    },
    {
      "inputs": [
        {
          "internalType": "string",
          "name": "_data",
          "type": "string"
        }
      ],
      "name": "saveData",
      "outputs": [],
      "stateMutability": "nonpayable",
      "type": "function"
    },
    {
      "inputs": [
        {
          "internalType": "string",
          "name": "_newData",
          "type": "string"
        }
      ],
      "name": "updateData",
      "outputs": [],
      "stateMutability": "nonpayable",
      "type": "function"
    }
  ],
  "bytecode": "0x6080604052348015600f57600080fd5b5061056a8061001f6000396000f3fe608060405234801561001057600080fd5b50600436106100415760003560e01c80633bc5de301461004657806368446ead14610064578063c46a93d214610079575b600080fd5b61004e61008c565b60405161005b91906102e4565b60405180910390f35b610077610072366004610332565b61012d565b005b610077610087366004610332565b61024a565b3360009081526020819052604090208054606091906100aa906103a6565b80601f01602080910402602001604051908101604052809291908181526020018280546100d6906103a6565b80156101235780601f106100f857610100808354040283529160200191610123565b820191906000526020600020905b81548152906001019060200180831161010657829003601f168201915b5050505050905090565b8061017f5760405162461bcd60e51b815260206004820152601860248201527f4e657720646174612063616e6e6f7420626520656d707479000000000000000060448201526064015b60405180910390fd5b3360009081526020819052604081208054610199906103a6565b9050116101e85760405162461bcd60e51b815260206004820152601860248201527f4e6f20646174612065786973747320746f2075706461746500000000000000006044820152606401610176565b336000908152602081905260409020610202828483610445565b50336001600160a01b03167f077380cc4f1ff57ad464ec617331c7304c78fc6bfdd0e3b5efa221a3bb9f6e20838360405161023e929190610505565b60405180910390a25050565b8061028e5760405162461bcd60e51b8152602060048201526014602482015273446174612063616e6e6f7420626520656d70747960601b6044820152606401610176565b3360009081526020819052604090206102a8828483610445565b50336001600160a01b03167f40febe3efa738b4c01591748406de2c1f0351e46453c08c030351268e87bcdff838360405161023e929190610505565b602081526000825180602084015260005b8181101561031257602081860181015160408684010152016102f5565b506000604082850101526040601f19601f83011684010191505092915050565b6000806020838503121561034557600080fd5b823567ffffffffffffffff81111561035c57600080fd5b8301601f8101851361036d57600080fd5b803567ffffffffffffffff81111561038457600080fd5b85602082840101111561039657600080fd5b6020919091019590945092505050565b600181811c908216806103ba57607f821691505b6020821081036103da57634e487b7160e01b600052602260045260246000fd5b50919050565b634e487b7160e01b600052604160045260246000fd5b601f82111561044057806000526020600020601f840160051c8101602085101561041d5750805b601f840160051c820191505b8181101561043d5760008155600101610429565b50505b505050565b67ffffffffffffffff83111561045d5761045d6103e0565b6104718361046b83546103a6565b836103f6565b6000601f8411600181146104a5576000851561048d5750838201355b600019600387901b1c1916600186901b17835561043d565b600083815260209020601f19861690835b828110156104d657868501358255602094850194600190920191016104b6565b50868210156104f35760001960f88860031b161c19848701351681555b505060018560011b0183555050505050565b60208152816020820152818360408301376000818301604090810191909152601f909201601f1916010191905056fea264697066735822122008cddbe96effce70d33c7ac8cb96c911b64ec3450357684a1a8f0751223ffd7664736f6c634300081c0033",
  "linkReferences": {},
  "deployedLinkReferences": {}
}